:0400000081EF00F09C
:1000080040004000400040004000400040004000E8
:1000180040004000400040004000400040004000D8
:1000280067004000400040004000400040004000A1
:1000380040004000400040004000400040004000B8
:1000480040004000400040004000400040004000A8
:100058004000400040004000400040004000400098
:100068004000400040004000400040004000400088
:100078004000400040004000400040004000400078
:100088004000400040004000400040004000400068
:100098004000400040004000400040004000400058
:1000A8004000400040004000400040004000400048
:1000B8004000400040004000400040004000400038
:1000C8004000400040004000400040004000400028
:1000D8004000400040004000400040004000400018
:1000E8004000400040004000400040004000400008
:1000F8004000400040004000FF000FEF01F029ECF5
:1001080001F021EC01F0F9EC00F0B0EC00F02FEC7C
:1001180001F0DEEC00F0000E19EC01F004EC01F047
:1001280001C506F502C507F5030EEDEC00F0065013
:10013800EDEC00F00750EDEC00F0FC0EEDEC00F0FB
:10014800A30E056E550EE82EFED7052EFCD700F03F
:1001580092EF00F081EF00F00301F38FF389F35180
:10016800F30B0409F36F3C0EEC6FF551F80B04091F
:10017800F56F100EE76FF5518F0B4009F56F8F0E75
:10018800F617F80EF617040EF96FAF94B090A0802A
:02019800120053
:10019C00A0A0D3EF00F0D5EF00F0DDEF00F0B0A0A1
:1001AC00DAEF00F0DCEF00F0DDEF00F0B0901100C2
:1001BC00010E0301266F000E256F000E276FF90E3E
:1001CC00236F000E226FB196800E246F1200016E09
:1001DC00B2A2F3EF00F0F5EF00F0EEEF00F06100EB
:1001EC0004F4A3F212000201AB8BAB8FF00EAB1731
:1001FC00000EAF6F190EAE6FAC8F12000301E251FF
:10020C00046E036AE1510324016E000E0420026E99
:10021C0012000401080E5D6F000E5E6F000E5F6F22
:10022C00000183EF00F0016E610004F4ECF30301B4
:10023C00F38FF3811200CB90200E0201296FC68040
:10024C00040100811200600E0001AD6F000EB16F51
:06025C001200D68E120014
:020000040020DA
:10000000FF0FFF0FFF0FFF0FFF0FFF0FFF0FFF0F80
:10001000FF0FFF0FFF0FFF0FFF0FFF0FFF0FFF0F70
:10002000FF0FFF0FFF0FFF0FFF0FFF0FFF0FFF0F60
:10003000FF0FFF0FFF0FFF0FFF0FFF0FFF0FFF0F50
:020000040030CA
:0A000000FFFFFFFF9FFFFFFFFFFF60
:00000001FF
